:100000000C9434000C943E000C943E000C943E0082
:100010000C943E000C943E000C943E000C943E0068
:100020000C943E000C943E000C943E000C943E0058
:100030000C943E000C943E000C943E000C943E0048
:100040000C943E000C943E000C943E000C943E0038
:100050000C943E000C943E000C943E000C943E0028
:100060000C943E000C943E0011241FBECFEFD8E04C
:10007000DEBFCDBF0E9450000C9455000C940000D0
:10008000259A089595B180E2892785B92FEF83EDF0
:1000900090E3215080409040E1F700C000000895B7
:0E00A0000E9440000E944200FDCFF894FFCF66
:00000001FF
