:100000000C9434000C9451000C9451000C94510049
:100010000C9451000C9451000C9451000C9451001C
:100020000C9451000C9451000C9451000C9451000C
:100030000C9451000C9451000C9451000C945100FC
:100040000C9451000C9451000C9451000C945100EC
:100050000C9451000C9451000C9451000C945100DC
:100060000C9451000C94510011241FBECFEFD8E026
:10007000DEBFCDBF11E0A0E0B1E0EAEDF1E002C0EB
:1000800005900D92A432B107D9F721E0A4E2B1E0C6
:1000900001C01D92A532B207E1F70E94BE000C9488
:1000A000EB000C9400008FEF8AB983E084B9E0E0A4
:1000B000F1E0DF01329612962D913C9113978D91CC
:1000C0009C91820F931F9383828381E0E631F8072E
:1000D00081F708951BB8611103C0299A289802C0BE
:1000E000289A2998E82FF0E0E65EFE4F80818BB9D0
:1000F0008FE19EE40197F1F700C0000008950F938F
:100100001F93CF93DF932AE030E0B9010E94C30030
:10011000082FCB01B9010E94C300182FC2E3D0E021
:1001200060E0802F0E946A0061E0812F0E946A00D7
:100130002197B1F7DF91CF911F910F910895E09131
:10014000240181E08E0F80932401F0E0EE0FFF1F69
:10015000E050FF4F80819181843691051CF0109210
:10016000240102C00E947F002FEF89E698E1215010
:1001700080409040E1F700C0000008950E945300C5
:100180000E949F00FDCF97FB072E16F4009407D026
:1001900077FD09D00E94D70007FC05D03EF490956A
:1001A00081959F4F0895709561957F4F0895AA1B83
:1001B000BB1B51E107C0AA1FBB1FA617B70710F052
:1001C000A61BB70B881F991F5A95A9F78095909584
:0A01D000BC01CD010895F894FFCFA3
:1001DA000000010000000000000000000000000014
:1001EA00000000000000000000003F065B4F666D43
:0401FA007D077F6F8F
:00000001FF
