:100000000C9434000C943E000C943E000C943E0082
:100010000C943E000C943E000C943E000C943E0068
:100020000C943E000C943E000C943E000C943E0058
:100030000C943E000C943E000C943E000C943E0048
:100040000C943E000C943E000C943E000C943E0038
:100050000C943E000C943E000C943E000C943E0028
:100060000C943E000C943E0011241FBECFEFD8E04C
:10007000DEBFCDBF0E946E000C9473000C94000094
:100080008CE284B9249881E58CBD08958EBD0DB4B1
:1000900007FEFDCF8EB508950E9440008FEF8AB90C
:1000A00008952A9885E00E94460080E00E9446005C
:1000B0008FEF0E944600893721F48FEF0E9446009F
:1000C00001C08FEF2A9A8BB92FEF83ED90E3215077
:1000D00080409040E1F700C0000008950E944C006D
:0A00E0000E945100FDCFF894FFCFFD
:00000001FF
