:100000000C9434000C943E000C943E000C943E0082
:100010000C943E000C943E000C943E000C943E0068
:100020000C943E000C943E000C943E000C943E0058
:100030000C943E000C943E000C943E000C943E0048
:100040000C943E000C943E000C943E000C943E0038
:100050000C943E000C943E000C943E000C943E0028
:100060000C943E000C943E0011241FBECFEFD8E04C
:10007000DEBFCDBF0E9497000C9489010C94000054
:1000800080E184B984B1837D84B980E48CBD089516
:100090008EBD0DB407FEFDCF8EB508956130B9F069
:1000A000A0F06230B1F06330B1F46BEA869F612D4D
:1000B0001124669570E080E090E00E94CD000E94DF
:1000C00008010E949C00862F08958F5F089581503B
:1000D0000895880F08958FEF08950E9440008FEFD4
:1000E0008AB90895CF93DF938FEF0E944800C82FFD
:1000F0008FEF0E944800682F8C2F0E944E00D82F4F
:100100008F3F29F089E70E9448008D2F01C08FE1C1
:100110000E944800CBB92FEF83ED90E3215080403F
:100120009040E1F700C00000DF91CF9108950E9458
:100130006D000E947200FDCF0E94500188F09F5711
:1001400098F0B92F9927B751B0F0E1F0660F771FFB
:10015000881F991F1AF0BA95C9F714C0B13091F0F1
:100160000E948201B1E008950C948201672F782FDC
:100170008827B85F39F0B93FCCF3869577956795B6
:10018000B395D9F73EF490958095709561957F4F22
:100190008F4F9F4F0895E89409C097FB3EF49095C8
:1001A0008095709561957F4F8F4F9F4F9923A9F050
:1001B000F92F96E9BB279395F695879577956795DF
:1001C000B795F111F8CFFAF4BB0F11F460FF1BC023
:1001D0006F5F7F4F8F4F9F4F16C0882311F096E9B6
:1001E00011C0772321F09EE8872F762F05C0662364
:1001F00071F096E8862F70E060E02AF09A95660F1D
:10020000771F881FDAF7880F9695879597F90895D5
:100210000E946A0190F09F3748F4911116F00C94F7
:10022000830160E070E080E89FEB089526F41B16E0
:10023000611D711D811D0C941F010C943A018823CE
:1002400071F4772321F09850872B762F07C066230F
:1002500011F499270DC09051862B70E060E02AF0D0
:100260009A95660F771F881FDAF7880F96958795FE
:1002700097F908959F3F31F0915020F48795779535
:100280006795B795880F911D9695879597F908956D
:1002900057FD9058440F551F59F05F3F71F0479537
:1002A000880F97FB991F61F09F3F79F0879508951C
:1002B000121613061406551FF2CF4695F1DF08C03B
:1002C000161617061806991FF1CF86957105610558
:1002D000089408950E945001A0F0BEE7B91788F471
:1002E000BB279F3860F41616B11D672F782F88271B
:1002F000985FF7CF869577956795B11D9395963959
:10030000C8F30895E894BB2766277727CB0197F9B0
:060310000895F894FFCFF0
:00000001FF
