:100000000C9434000C9451000C9451000C94510049
:100010000C9451000C9451000C9451000C9451001C
:100020000C9451000C9451000C9451000C9451000C
:100030000C9451000C9451000C9451000C945100FC
:100040000C9451000C9451000C9451000C945100EC
:100050000C9451000C9451000C9451000C945100DC
:100060000C9451000C94510011241FBECFEFD8E026
:10007000DEBFCDBF11E0A0E0B1E0ECE0F1E002C0F6
:1000800005900D92AE30B107D9F721E0AEE0B1E0B6
:1000900001C01D92AF30B207E1F70E947F000C94BF
:1000A00084000C9400008FEF8AB9E0E0F1E0DF01FA
:1000B000319611969C9111978C91890F818381E0E3
:1000C000EB30F807A1F70895E0910E0181E08E0F63
:1000D00080930E01F0E0E050FF4F80818BB980915A
:1000E0000E018D3010F010920E012FEF83ED90E392
:1000F000215080409040E1F700C0000008950E9428
:0C01000053000E946400FDCFF894FFCF74
:0E010C000001000000000000000000000000E4
:00000001FF
